{
  "contractName": "MissuToken",
  "abi": [
    {
      "inputs": [],
      "stateMutability": "nonpayable",
      "type": "constructor"
    },
    {
      "anonymous": false,
      "inputs": [
        {
          "indexed": true,
          "internalType": "address",
          "name": "owner",
          "type": "address"
        },
        {
          "indexed": true,
          "internalType": "address",
          "name": "spender",
          "type": "address"
        },
        {
          "indexed": false,
          "internalType": "uint256",
          "name": "value",
          "type": "uint256"
        }
      ],
      "name": "Approval",
      "type": "event"
    },
    {
      "anonymous": false,
      "inputs": [
        {
          "indexed": true,
          "internalType": "address",
          "name": "previousOwner",
          "type": "address"
        },
        {
          "indexed": true,
          "internalType": "address",
          "name": "newOwner",
          "type": "address"
        }
      ],
      "name": "OwnershipTransferred",
      "type": "event"
    },
    {
      "anonymous": false,
      "inputs": [
        {
          "indexed": false,
          "internalType": "address",
          "name": "account",
          "type": "address"
        }
      ],
      "name": "Paused",
      "type": "event"
    },
    {
      "anonymous": false,
      "inputs": [
        {
          "indexed": false,
          "internalType": "uint256",
          "name": "id",
          "type": "uint256"
        }
      ],
      "name": "Snapshot",
      "type": "event"
    },
    {
      "anonymous": false,
      "inputs": [
        {
          "indexed": true,
          "internalType": "address",
          "name": "from",
          "type": "address"
        },
        {
          "indexed": true,
          "internalType": "address",
          "name": "to",
          "type": "address"
        },
        {
          "indexed": false,
          "internalType": "uint256",
          "name": "value",
          "type": "uint256"
        }
      ],
      "name": "Transfer",
      "type": "event"
    },
    {
      "anonymous": false,
      "inputs": [
        {
          "indexed": false,
          "internalType": "address",
          "name": "account",
          "type": "address"
        }
      ],
      "name": "Unpaused",
      "type": "event"
    },
    {
      "inputs": [],
      "name": "DOMAIN_SEPARATOR",
      "outputs": [
        {
          "internalType": "bytes32",
          "name": "",
          "type": "bytes32"
        }
      ],
      "stateMutability": "view",
      "type": "function",
      "constant": true
    },
    {
      "inputs": [
        {
          "internalType": "address",
          "name": "owner",
          "type": "address"
        },
        {
          "internalType": "address",
          "name": "spender",
          "type": "address"
        }
      ],
      "name": "allowance",
      "outputs": [
        {
          "internalType": "uint256",
          "name": "",
          "type": "uint256"
        }
      ],
      "stateMutability": "view",
      "type": "function",
      "constant": true
    },
    {
      "inputs": [
        {
          "internalType": "address",
          "name": "spender",
          "type": "address"
        },
        {
          "internalType": "uint256",
          "name": "amount",
          "type": "uint256"
        }
      ],
      "name": "approve",
      "outputs": [
        {
          "internalType": "bool",
          "name": "",
          "type": "bool"
        }
      ],
      "stateMutability": "nonpayable",
      "type": "function"
    },
    {
      "inputs": [
        {
          "internalType": "address",
          "name": "account",
          "type": "address"
        }
      ],
      "name": "balanceOf",
      "outputs": [
        {
          "internalType": "uint256",
          "name": "",
          "type": "uint256"
        }
      ],
      "stateMutability": "view",
      "type": "function",
      "constant": true
    },
    {
      "inputs": [
        {
          "internalType": "address",
          "name": "account",
          "type": "address"
        },
        {
          "internalType": "uint256",
          "name": "snapshotId",
          "type": "uint256"
        }
      ],
      "name": "balanceOfAt",
      "outputs": [
        {
          "internalType": "uint256",
          "name": "",
          "type": "uint256"
        }
      ],
      "stateMutability": "view",
      "type": "function",
      "constant": true
    },
    {
      "inputs": [
        {
          "internalType": "uint256",
          "name": "amount",
          "type": "uint256"
        }
      ],
      "name": "burn",
      "outputs": [],
      "stateMutability": "nonpayable",
      "type": "function"
    },
    {
      "inputs": [
        {
          "internalType": "address",
          "name": "account",
          "type": "address"
        },
        {
          "internalType": "uint256",
          "name": "amount",
          "type": "uint256"
        }
      ],
      "name": "burnFrom",
      "outputs": [],
      "stateMutability": "nonpayable",
      "type": "function"
    },
    {
      "inputs": [],
      "name": "decimals",
      "outputs": [
        {
          "internalType": "uint8",
          "name": "",
          "type": "uint8"
        }
      ],
      "stateMutability": "view",
      "type": "function",
      "constant": true
    },
    {
      "inputs": [
        {
          "internalType": "address",
          "name": "spender",
          "type": "address"
        },
        {
          "internalType": "uint256",
          "name": "subtractedValue",
          "type": "uint256"
        }
      ],
      "name": "decreaseAllowance",
      "outputs": [
        {
          "internalType": "bool",
          "name": "",
          "type": "bool"
        }
      ],
      "stateMutability": "nonpayable",
      "type": "function"
    },
    {
      "inputs": [
        {
          "internalType": "address",
          "name": "spender",
          "type": "address"
        },
        {
          "internalType": "uint256",
          "name": "addedValue",
          "type": "uint256"
        }
      ],
      "name": "increaseAllowance",
      "outputs": [
        {
          "internalType": "bool",
          "name": "",
          "type": "bool"
        }
      ],
      "stateMutability": "nonpayable",
      "type": "function"
    },
    {
      "inputs": [],
      "name": "name",
      "outputs": [
        {
          "internalType": "string",
          "name": "",
          "type": "string"
        }
      ],
      "stateMutability": "view",
      "type": "function",
      "constant": true
    },
    {
      "inputs": [
        {
          "internalType": "address",
          "name": "owner",
          "type": "address"
        }
      ],
      "name": "nonces",
      "outputs": [
        {
          "internalType": "uint256",
          "name": "",
          "type": "uint256"
        }
      ],
      "stateMutability": "view",
      "type": "function",
      "constant": true
    },
    {
      "inputs": [],
      "name": "owner",
      "outputs": [
        {
          "internalType": "address",
          "name": "",
          "type": "address"
        }
      ],
      "stateMutability": "view",
      "type": "function",
      "constant": true
    },
    {
      "inputs": [],
      "name": "paused",
      "outputs": [
        {
          "internalType": "bool",
          "name": "",
          "type": "bool"
        }
      ],
      "stateMutability": "view",
      "type": "function",
      "constant": true
    },
    {
      "inputs": [
        {
          "internalType": "address",
          "name": "owner",
          "type": "address"
        },
        {
          "internalType": "address",
          "name": "spender",
          "type": "address"
        },
        {
          "internalType": "uint256",
          "name": "value",
          "type": "uint256"
        },
        {
          "internalType": "uint256",
          "name": "deadline",
          "type": "uint256"
        },
        {
          "internalType": "uint8",
          "name": "v",
          "type": "uint8"
        },
        {
          "internalType": "bytes32",
          "name": "r",
          "type": "bytes32"
        },
        {
          "internalType": "bytes32",
          "name": "s",
          "type": "bytes32"
        }
      ],
      "name": "permit",
      "outputs": [],
      "stateMutability": "nonpayable",
      "type": "function"
    },
    {
      "inputs": [],
      "name": "renounceOwnership",
      "outputs": [],
      "stateMutability": "nonpayable",
      "type": "function"
    },
    {
      "inputs": [],
      "name": "symbol",
      "outputs": [
        {
          "internalType": "string",
          "name": "",
          "type": "string"
        }
      ],
      "stateMutability": "view",
      "type": "function",
      "constant": true
    },
    {
      "inputs": [],
      "name": "totalSupply",
      "outputs": [
        {
          "internalType": "uint256",
          "name": "",
          "type": "uint256"
        }
      ],
      "stateMutability": "view",
      "type": "function",
      "constant": true
    },
    {
      "inputs": [
        {
          "internalType": "uint256",
          "name": "snapshotId",
          "type": "uint256"
        }
      ],
      "name": "totalSupplyAt",
      "outputs": [
        {
          "internalType": "uint256",
          "name": "",
          "type": "uint256"
        }
      ],
      "stateMutability": "view",
      "type": "function",
      "constant": true
    },
    {
      "inputs": [
        {
          "internalType": "address",
          "name": "recipient",
          "type": "address"
        },
        {
          "internalType": "uint256",
          "name": "amount",
          "type": "uint256"
        }
      ],
      "name": "transfer",
      "outputs": [
        {
          "internalType": "bool",
          "name": "",
          "type": "bool"
        }
      ],
      "stateMutability": "nonpayable",
      "type": "function"
    },
    {
      "inputs": [
        {
          "internalType": "address",
          "name": "sender",
          "type": "address"
        },
        {
          "internalType": "address",
          "name": "recipient",
          "type": "address"
        },
        {
          "internalType": "uint256",
          "name": "amount",
          "type": "uint256"
        }
      ],
      "name": "transferFrom",
      "outputs": [
        {
          "internalType": "bool",
          "name": "",
          "type": "bool"
        }
      ],
      "stateMutability": "nonpayable",
      "type": "function"
    },
    {
      "inputs": [
        {
          "internalType": "address",
          "name": "newOwner",
          "type": "address"
        }
      ],
      "name": "transferOwnership",
      "outputs": [],
      "stateMutability": "nonpayable",
      "type": "function"
    },
    {
      "inputs": [],
      "name": "snapshot",
      "outputs": [],
      "stateMutability": "nonpayable",
      "type": "function"
    },
    {
      "inputs": [],
      "name": "pause",
      "outputs": [],
      "stateMutability": "nonpayable",
      "type": "function"
    },
    {
      "inputs": [],
      "name": "unpause",
      "outputs": [],
      "stateMutability": "nonpayable",
      "type": "function"
    },
    {
      "inputs": [
        {
          "internalType": "address",
          "name": "to",
          "type": "address"
        },
        {
          "internalType": "uint256",
          "name": "amount",
          "type": "uint256"
        }
      ],
      "name": "mint",
      "outputs": [],
      "stateMutability": "nonpayable",
      "type": "function"
    }
  ],
  "bytecode": "0x6101606040527f6e71edae12b1b97f4d1f60370fef10105fa2faae0126114a169c64845d6126c9610140908152503480156200003a57600080fd5b506040518060400160405280600b81526020017f4d6973737520546f6b656e000000000000000000000000000000000000000000815250806040518060400160405280600181526020017f31000000000000000000000000000000000000000000000000000000000000008152506040518060400160405280600b81526020017f4d6973737520546f6b656e0000000000000000000000000000000000000000008152506040518060400160405280600381526020017f4d5354000000000000000000000000000000000000000000000000000000000081525081600390805190602001906200012c929190620008b7565b50806004908051906020019062000145929190620008b7565b505050620001686200015c620002ba60201b60201c565b620002c260201b60201c565b6000600960146101000a81548160ff02191690831515021790555060008280519060200120905060008280519060200120905060007f8b73c3c69bb8fe3d512ecc4cf759cc79239f7b179b0ffacaa9a75d522b39400f90508260e081815250508161010081815250504660a08181525050620001ec8184846200038860201b60201c565b608081815250503073ffffffffffffffffffffffffffffffffffffffff1660c08173ffffffffffffffffffffffffffffffffffffffff168152505080610120818152505050505050505062000275336200024b620003c460201b60201c565b600a62000259919062000b01565b620f424062000269919062000b52565b620003cd60201b60201c565b620002b4306200028a620003c460201b60201c565b600a62000298919062000b01565b620f4240620002a8919062000b52565b620003cd60201b60201c565b62000ebf565b600033905090565b6000600960009054906101000a900473ffffffffffffffffffffffffffffffffffffffff16905081600960006101000a81548173ffffffffffffffffffffffffffffffffffffffff021916908373ffffffffffffffffffffffffffffffffffffffff1602179055508173ffffffffffffffffffffffffffffffffffffffff168173ffffffffffffffffffffffffffffffffffffffff167f8be0079c531659141344cd1fd0a4f28419497f9722a3daafe3b4186f6b6457e060405160405180910390a35050565b60008383834630604051602001620003a595949392919062000c24565b6040516020818303038152906040528051906020012090509392505050565b60006012905090565b600073ffffffffffffffffffffffffffffffffffffffff168273ffffffffffffffffffffffffffffffffffffffff16141562000440576040517f08c379a0000000000000000000000000000000000000000000000000000000008152600401620004379062000ce2565b60405180910390fd5b62000454600083836200054660201b60201c565b806002600082825462000468919062000d04565b92505081905550806000808473ffffffffffffffffffffffffffffffffffffffff1673ffffffffffffffffffffffffffffffffffffffff1681526020019081526020016000206000828254620004bf919062000d04565b925050819055508173ffffffffffffffffffffffffffffffffffffffff16600073ffffffffffffffffffffffffffffffffffffffff167fddf252ad1be2c89b69c2b068fc378daa952ba7f163c4a11628f55a4df523b3ef8360405162000526919062000d61565b60405180910390a36200054260008383620005b660201b60201c565b5050565b62000556620005bb60201b60201c565b1562000599576040517f08c379a0000000000000000000000000000000000000000000000000000000008152600401620005909062000dce565b60405180910390fd5b620005b1838383620005d260201b620010791760201c565b505050565b505050565b6000600960149054906101000a900460ff16905090565b620005ea838383620006cd60201b620011331760201c565b600073ffffffffffffffffffffffffffffffffffffffff168373ffffffffffffffffffffffffffffffffffffffff16141562000647576200063182620006d260201b60201c565b620006416200073560201b60201c565b620006c8565b600073ffffffffffffffffffffffffffffffffffffffff168273ffffffffffffffffffffffffffffffffffffffff161415620006a4576200068e83620006d260201b60201c565b6200069e6200073560201b60201c565b620006c7565b620006b583620006d260201b60201c565b620006c682620006d260201b60201c565b5b5b505050565b505050565b62000732600560008373ffffffffffffffffffffffffffffffffffffffff1673ffffffffffffffffffffffffffffffffffffffff16815260200190815260200160002062000726836200075960201b60201c565b620007a160201b60201c565b50565b6200075760066200074b6200082d60201b60201c565b620007a160201b60201c565b565b60008060008373ffffffffffffffffffffffffffffffffffffffff1673ffffffffffffffffffffffffffffffffffffffff168152602001908152602001600020549050919050565b6000620007b36200083760201b60201c565b905080620007ca846000016200085560201b60201c565b1015620008285782600001819080600181540180825580915050600190039060005260206000200160009091909190915055826001018290806001815401808255809150506001900390600052602060002001600090919091909150555b505050565b6000600254905090565b6000620008506008620008a960201b620011381760201c565b905090565b600080828054905014156200086e5760009050620008a4565b816001838054905062000882919062000df0565b8154811062000896576200089562000e2b565b5b906000526020600020015490505b919050565b600081600001549050919050565b828054620008c59062000e89565b90600052602060002090601f016020900481019282620008e9576000855562000935565b82601f106200090457805160ff191683800117855562000935565b8280016001018555821562000935579182015b828111156200093457825182559160200191906001019062000917565b5b50905062000944919062000948565b5090565b5b808211156200096357600081600090555060010162000949565b5090565b7f4e487b7100000000000000000000000000000000000000000000000000000000600052601160045260246000fd5b60008160011c9050919050565b6000808291508390505b6001851115620009f557808604811115620009cd57620009cc62000967565b5b6001851615620009dd5780820291505b8081029050620009ed8562000996565b9450620009ad565b94509492505050565b60008262000a10576001905062000ae3565b8162000a20576000905062000ae3565b816001811462000a39576002811462000a445762000a7a565b600191505062000ae3565b60ff84111562000a595762000a5862000967565b5b8360020a91508482111562000a735762000a7262000967565b5b5062000ae3565b5060208310610133831016604e8410600b841016171562000ab45782820a90508381111562000aae5762000aad62000967565b5b62000ae3565b62000ac38484846001620009a3565b9250905081840481111562000add5762000adc62000967565b5b81810290505b9392505050565b6000819050919050565b600060ff82169050919050565b600062000b0e8262000aea565b915062000b1b8362000af4565b925062000b4a7fffffffffffffffffffffffffffffffffffffffffffffffffffffffffffffffff8484620009fe565b905092915050565b600062000b5f8262000aea565b915062000b6c8362000aea565b9250817fffffffffffffffffffffffffffffffffffffffffffffffffffffffffffffffff048311821515161562000ba85762000ba762000967565b5b828202905092915050565b6000819050919050565b62000bc88162000bb3565b82525050565b62000bd98162000aea565b82525050565b600073ffffffffffffffffffffffffffffffffffffffff82169050919050565b600062000c0c8262000bdf565b9050919050565b62000c1e8162000bff565b82525050565b600060a08201905062000c3b600083018862000bbd565b62000c4a602083018762000bbd565b62000c59604083018662000bbd565b62000c68606083018562000bce565b62000c77608083018462000c13565b9695505050505050565b600082825260208201905092915050565b7f45524332303a206d696e7420746f20746865207a65726f206164647265737300600082015250565b600062000cca601f8362000c81565b915062000cd78262000c92565b602082019050919050565b6000602082019050818103600083015262000cfd8162000cbb565b9050919050565b600062000d118262000aea565b915062000d1e8362000aea565b9250827fffffffffffffffffffffffffffffffffffffffffffffffffffffffffffffffff0382111562000d565762000d5562000967565b5b828201905092915050565b600060208201905062000d78600083018462000bce565b92915050565b7f5061757361626c653a2070617573656400000000000000000000000000000000600082015250565b600062000db660108362000c81565b915062000dc38262000d7e565b602082019050919050565b6000602082019050818103600083015262000de98162000da7565b9050919050565b600062000dfd8262000aea565b915062000e0a8362000aea565b92508282101562000e205762000e1f62000967565b5b828203905092915050565b7f4e487b7100000000000000000000000000000000000000000000000000000000600052603260045260246000fd5b7f4e487b7100000000000000000000000000000000000000000000000000000000600052602260045260246000fd5b6000600282049050600182168062000ea257607f821691505b6020821081141562000eb95762000eb862000e5a565b5b50919050565b60805160a05160c05160e0516101005161012051610140516137af62000f1a6000396000610dff015260006116480152600061168a015260006116690152600061159e015260006115f40152600061161d01526137af6000f3fe608060405234801561001057600080fd5b506004361061018e5760003560e01c8063715018a6116100de5780639711715a11610097578063a9059cbb11610071578063a9059cbb14610461578063d505accf14610491578063dd62ed3e146104ad578063f2fde38b146104dd5761018e565b80639711715a146103f7578063981b24d014610401578063a457c2d7146104315761018e565b8063715018a61461035b57806379cc6790146103655780637ecebe00146103815780638456cb59146103b15780638da5cb5b146103bb57806395d89b41146103d95761018e565b8063395093511161014b57806342966c681161012557806342966c68146102c15780634ee2cd7e146102dd5780635c975abb1461030d57806370a082311461032b5761018e565b8063395093511461026b5780633f4ba83a1461029b57806340c10f19146102a55761018e565b806306fdde0314610193578063095ea7b3146101b157806318160ddd146101e157806323b872dd146101ff578063313ce5671461022f5780633644e5151461024d575b600080fd5b61019b6104f9565b6040516101a89190612480565b60405180910390f35b6101cb60048036038101906101c6919061253b565b61058b565b6040516101d89190612596565b60405180910390f35b6101e96105a9565b6040516101f691906125c0565b60405180910390f35b610219600480360381019061021491906125db565b6105b3565b6040516102269190612596565b60405180910390f35b6102376106ab565b604051610244919061264a565b60405180910390f35b6102556106b4565b604051610262919061267e565b60405180910390f35b6102856004803603810190610280919061253b565b6106c3565b6040516102929190612596565b60405180910390f35b6102a361076f565b005b6102bf60048036038101906102ba919061253b565b6107f5565b005b6102db60048036038101906102d69190612699565b61087f565b005b6102f760048036038101906102f2919061253b565b610893565b60405161030491906125c0565b60405180910390f35b610315610903565b6040516103229190612596565b60405180910390f35b610345600480360381019061034091906126c6565b61091a565b60405161035291906125c0565b60405180910390f35b610363610962565b005b61037f600480360381019061037a919061253b565b6109ea565b005b61039b600480360381019061039691906126c6565b610a65565b6040516103a891906125c0565b60405180910390f35b6103b9610ab5565b005b6103c3610b3b565b6040516103d09190612702565b60405180910390f35b6103e1610b65565b6040516103ee9190612480565b60405180910390f35b6103ff610bf7565b005b61041b60048036038101906104169190612699565b610c7e565b60405161042891906125c0565b60405180910390f35b61044b6004803603810190610446919061253b565b610caf565b6040516104589190612596565b60405180910390f35b61047b6004803603810190610476919061253b565b610d9a565b6040516104889190612596565b60405180910390f35b6104ab60048036038101906104a69190612775565b610db8565b005b6104c760048036038101906104c29190612817565b610efa565b6040516104d491906125c0565b60405180910390f35b6104f760048036038101906104f291906126c6565b610f81565b005b60606003805461050890612886565b80601f016020809104026020016040519081016040528092919081815260200182805461053490612886565b80156105815780601f1061055657610100808354040283529160200191610581565b820191906000526020600020905b81548152906001019060200180831161056457829003601f168201915b5050505050905090565b600061059f610598611146565b848461114e565b6001905092915050565b6000600254905090565b60006105c0848484611319565b6000600160008673ffffffffffffffffffffffffffffffffffffffff1673ffffffffffffffffffffffffffffffffffffffff168152602001908152602001600020600061060b611146565b73ffffffffffffffffffffffffffffffffffffffff1673ffffffffffffffffffffffffffffffffffffffff1681526020019081526020016000205490508281101561068b576040517f08c379a00000000000000000000000000000000000000000000000000000000081526004016106829061292a565b60405180910390fd5b61069f85610697611146565b85840361114e565b60019150509392505050565b60006012905090565b60006106be61159a565b905090565b60006107656106d0611146565b8484600160006106de611146565b73ffffffffffffffffffffffffffffffffffffffff1673ffffffffffffffffffffffffffffffffffffffff16815260200190815260200160002060008873ffffffffffffffffffffffffffffffffffffffff1673ffffffffffffffffffffffffffffffffffffffff168152602001908152602001600020546107609190612979565b61114e565b6001905092915050565b610777611146565b73ffffffffffffffffffffffffffffffffffffffff16610795610b3b565b73ffffffffffffffffffffffffffffffffffffffff16146107eb576040517f08c379a00000000000000000000000000000000000000000000000000000000081526004016107e290612a1b565b60405180910390fd5b6107f36116b4565b565b6107fd611146565b73ffffffffffffffffffffffffffffffffffffffff1661081b610b3b565b73ffffffffffffffffffffffffffffffffffffffff1614610871576040517f08c379a000000000000000000000000000000000000000000000000000000000815260040161086890612a1b565b60405180910390fd5b61087b8282611756565b5050565b61089061088a611146565b826118b6565b50565b60008060006108e084600560008873ffffffffffffffffffffffffffffffffffffffff1673ffffffffffffffffffffffffffffffffffffffff168152602001908152602001600020611a8d565b91509150816108f7576108f28561091a565b6108f9565b805b9250505092915050565b6000600960149054906101000a900460ff16905090565b60008060008373ffffffffffffffffffffffffffffffffffffffff1673ffffffffffffffffffffffffffffffffffffffff168152602001908152602001600020549050919050565b61096a611146565b73ffffffffffffffffffffffffffffffffffffffff16610988610b3b565b73ffffffffffffffffffffffffffffffffffffffff16146109de576040517f08c379a00000000000000000000000000000000000000000000000000000000081526004016109d590612a1b565b60405180910390fd5b6109e86000611b83565b565b60006109fd836109f8611146565b610efa565b905081811015610a42576040517f08c379a0000000000000000000000000000000000000000000000000000000008152600401610a3990612aad565b60405180910390fd5b610a5683610a4e611146565b84840361114e565b610a6083836118b6565b505050565b6000610aae600a60008473ffffffffffffffffffffffffffffffffffffffff1673ffffffffffffffffffffffffffffffffffffffff168152602001908152602001600020611138565b9050919050565b610abd611146565b73ffffffffffffffffffffffffffffffffffffffff16610adb610b3b565b73ffffffffffffffffffffffffffffffffffffffff1614610b31576040517f08c379a0000000000000000000000000000000000000000000000000000000008152600401610b2890612a1b565b60405180910390fd5b610b39611c49565b565b6000600960009054906101000a900473ffffffffffffffffffffffffffffffffffffffff16905090565b606060048054610b7490612886565b80601f0160208091040260200160405190810160405280929190818152602001828054610ba090612886565b8015610bed5780601f10610bc257610100808354040283529160200191610bed565b820191906000526020600020905b815481529060010190602001808311610bd057829003601f168201915b5050505050905090565b610bff611146565b73ffffffffffffffffffffffffffffffffffffffff16610c1d610b3b565b73ffffffffffffffffffffffffffffffffffffffff1614610c73576040517f08c379a0000000000000000000000000000000000000000000000000000000008152600401610c6a90612a1b565b60405180910390fd5b610c7b611cec565b50565b6000806000610c8e846006611a8d565b9150915081610ca457610c9f6105a9565b610ca6565b805b92505050919050565b60008060016000610cbe611146565b73ffffffffffffffffffffffffffffffffffffffff1673ffffffffffffffffffffffffffffffffffffffff16815260200190815260200160002060008573ffffffffffffffffffffffffffffffffffffffff1673ffffffffffffffffffffffffffffffffffffffff16815260200190815260200160002054905082811015610d7b576040517f08c379a0000000000000000000000000000000000000000000000000000000008152600401610d7290612b3f565b60405180910390fd5b610d8f610d86611146565b8585840361114e565b600191505092915050565b6000610dae610da7611146565b8484611319565b6001905092915050565b83421115610dfb576040517f08c379a0000000000000000000000000000000000000000000000000000000008152600401610df290612bab565b60405180910390fd5b60007f0000000000000000000000000000000000000000000000000000000000000000888888610e2a8c611d42565b89604051602001610e4096959493929190612bcb565b6040516020818303038152906040528051906020012090506000610e6382611da0565b90506000610e7382878787611dba565b90508973ffffffffffffffffffffffffffffffffffffffff168173ffffffffffffffffffffffffffffffffffffffff1614610ee3576040517f08c379a0000000000000000000000000000000000000000000000000000000008152600401610eda90612c78565b60405180910390fd5b610eee8a8a8a61114e565b50505050505050505050565b6000600160008473ffffffffffffffffffffffffffffffffffffffff1673ffffffffffffffffffffffffffffffffffffffff16815260200190815260200160002060008373ffffffffffffffffffffffffffffffffffffffff1673ffffffffffffffffffffffffffffffffffffffff16815260200190815260200160002054905092915050565b610f89611146565b73ffffffffffffffffffffffffffffffffffffffff16610fa7610b3b565b73ffffffffffffffffffffffffffffffffffffffff1614610ffd576040517f08c379a0000000000000000000000000000000000000000000000000000000008152600401610ff490612a1b565b60405180910390fd5b600073ffffffffffffffffffffffffffffffffffffffff168173ffffffffffffffffffffffffffffffffffffffff16141561106d576040517f08c379a000000000000000000000000000000000000000000000000000000000815260040161106490612d0a565b60405180910390fd5b61107681611b83565b50565b611084838383611133565b600073ffffffffffffffffffffffffffffffffffffffff168373ffffffffffffffffffffffffffffffffffffffff1614156110cf576110c282611de5565b6110ca611e38565b61112e565b600073ffffffffffffffffffffffffffffffffffffffff168273ffffffffffffffffffffffffffffffffffffffff16141561111a5761110d83611de5565b611115611e38565b61112d565b61112383611de5565b61112c82611de5565b5b5b505050565b505050565b600081600001549050919050565b600033905090565b600073ffffffffffffffffffffffffffffffffffffffff168373ffffffffffffffffffffffffffffffffffffffff1614156111be576040517f08c379a00000000000000000000000000000000000000000000000000000000081526004016111b590612d9c565b60405180910390fd5b600073ffffffffffffffffffffffffffffffffffffffff168273ffffffffffffffffffffffffffffffffffffffff16141561122e576040517f08c379a000000000000000000000000000000000000000000000000000000000815260040161122590612e2e565b60405180910390fd5b80600160008573ffffffffffffffffffffffffffffffffffffffff1673ffffffffffffffffffffffffffffffffffffffff16815260200190815260200160002060008473ffffffffffffffffffffffffffffffffffffffff1673ffffffffffffffffffffffffffffffffffffffff168152602001908152602001600020819055508173ffffffffffffffffffffffffffffffffffffffff168373ffffffffffffffffffffffffffffffffffffffff167f8c5be1e5ebec7d5bd14f71427d1e84f3dd0314c0f7b2291e5b200ac8c7c3b9258360405161130c91906125c0565b60405180910390a3505050565b600073ffffffffffffffffffffffffffffffffffffffff168373ffffffffffffffffffffffffffffffffffffffff161415611389576040517f08c379a000000000000000000000000000000000000000000000000000000000815260040161138090612ec0565b60405180910390fd5b600073ffffffffffffffffffffffffffffffffffffffff168273ffffffffffffffffffffffffffffffffffffffff1614156113f9576040517f08c379a00000000000000000000000000000000000000000000000000000000081526004016113f090612f52565b60405180910390fd5b611404838383611e4c565b60008060008573ffffffffffffffffffffffffffffffffffffffff1673ffffffffffffffffffffffffffffffffffffffff1681526020019081526020016000205490508181101561148a576040517f08c379a000000000000000000000000000000000000000000000000000000000815260040161148190612fe4565b60405180910390fd5b8181036000808673ffffffffffffffffffffffffffffffffffffffff1673ffffffffffffffffffffffffffffffffffffffff16815260200190815260200160002081905550816000808573ffffffffffffffffffffffffffffffffffffffff1673ffffffffffffffffffffffffffffffffffffffff168152602001908152602001600020600082825461151d9190612979565b925050819055508273ffffffffffffffffffffffffffffffffffffffff168473ffffffffffffffffffffffffffffffffffffffff167fddf252ad1be2c89b69c2b068fc378daa952ba7f163c4a11628f55a4df523b3ef8460405161158191906125c0565b60405180910390a3611594848484611ea4565b50505050565b60007f000000000000000000000000000000000000000000000000000000000000000073ffffffffffffffffffffffffffffffffffffffff163073ffffffffffffffffffffffffffffffffffffffff1614801561161657507f000000000000000000000000000000000000000000000000000000000000000046145b15611643577f000000000000000000000000000000000000000000000000000000000000000090506116b1565b6116ae7f00000000000000000000000000000000000000000000000000000000000000007f00000000000000000000000000000000000000000000000000000000000000007f0000000000000000000000000000000000000000000000000000000000000000611ea9565b90505b90565b6116bc610903565b6116fb576040517f08c379a00000000000000000000000000000000000000000000000000000000081526004016116f290613050565b60405180910390fd5b6000600960146101000a81548160ff0219169083151502179055507f5db9ee0a495bf2e6ff9c91a7834c1ba4fdd244a5e8aa4e537bd38aeae4b073aa61173f611146565b60405161174c9190612702565b60405180910390a1565b600073ffffffffffffffffffffffffffffffffffffffff168273ffffffffffffffffffffffffffffffffffffffff1614156117c6576040517f08c379a00000000000000000000000000000000000000000000000000000000081526004016117bd906130bc565b60405180910390fd5b6117d260008383611e4c565b80600260008282546117e49190612979565b92505081905550806000808473ffffffffffffffffffffffffffffffffffffffff1673ffffffffffffffffffffffffffffffffffffffff16815260200190815260200160002060008282546118399190612979565b925050819055508173ffffffffffffffffffffffffffffffffffffffff16600073ffffffffffffffffffffffffffffffffffffffff167fddf252ad1be2c89b69c2b068fc378daa952ba7f163c4a11628f55a4df523b3ef8360405161189e91906125c0565b60405180910390a36118b260008383611ea4565b5050565b600073ffffffffffffffffffffffffffffffffffffffff168273ffffffffffffffffffffffffffffffffffffffff161415611926576040517f08c379a000000000000000000000000000000000000000000000000000000000815260040161191d9061314e565b60405180910390fd5b61193282600083611e4c565b60008060008473ffffffffffffffffffffffffffffffffffffffff1673ffffffffffffffffffffffffffffffffffffffff168152602001908152602001600020549050818110156119b8576040517f08c379a00000000000000000000000000000000000000000000000000000000081526004016119af906131e0565b60405180910390fd5b8181036000808573ffffffffffffffffffffffffffffffffffffffff1673ffffffffffffffffffffffffffffffffffffffff168152602001908152602001600020819055508160026000828254611a0f9190613200565b92505081905550600073ffffffffffffffffffffffffffffffffffffffff168373ffffffffffffffffffffffffffffffffffffffff167fddf252ad1be2c89b69c2b068fc378daa952ba7f163c4a11628f55a4df523b3ef84604051611a7491906125c0565b60405180910390a3611a8883600084611ea4565b505050565b60008060008411611ad3576040517f08c379a0000000000000000000000000000000000000000000000000000000008152600401611aca90613280565b60405180910390fd5b611adb611ee3565b841115611b1d576040517f08c379a0000000000000000000000000000000000000000000000000000000008152600401611b14906132ec565b60405180910390fd5b6000611b358585600001611ef490919063ffffffff16565b90508360000180549050811415611b53576000809250925050611b7c565b6001846001018281548110611b6b57611b6a61330c565b5b906000526020600020015492509250505b9250929050565b6000600960009054906101000a900473ffffffffffffffffffffffffffffffffffffffff16905081600960006101000a81548173ffffffffffffffffffffffffffffffffffffffff021916908373ffffffffffffffffffffffffffffffffffffffff1602179055508173ffffffffffffffffffffffffffffffffffffffff168173ffffffffffffffffffffffffffffffffffffffff167f8be0079c531659141344cd1fd0a4f28419497f9722a3daafe3b4186f6b6457e060405160405180910390a35050565b611c51610903565b15611c91576040517f08c379a0000000000000000000000000000000000000000000000000000000008152600401611c8890613387565b60405180910390fd5b6001600960146101000a81548160ff0219169083151502179055507f62e78cea01bee320cd4e420270b5ea74000d11b0c9f74754ebdbfc544b05a258611cd5611146565b604051611ce29190612702565b60405180910390a1565b6000611cf86008611fce565b6000611d02611ee3565b90507f8030e83b04d87bef53480e26263266d6ca66863aa8506aca6f2559d18aa1cb6781604051611d3391906125c0565b60405180910390a18091505090565b600080600a60008473ffffffffffffffffffffffffffffffffffffffff1673ffffffffffffffffffffffffffffffffffffffff1681526020019081526020016000209050611d8f81611138565b9150611d9a81611fce565b50919050565b6000611db3611dad61159a565b83611fe4565b9050919050565b6000806000611dcb87878787612017565b91509150611dd881612124565b8192505050949350505050565b611e35600560008373ffffffffffffffffffffffffffffffffffffffff1673ffffffffffffffffffffffffffffffffffffffff168152602001908152602001600020611e308361091a565b6122f9565b50565b611e4a6006611e456105a9565b6122f9565b565b611e54610903565b15611e94576040517f08c379a0000000000000000000000000000000000000000000000000000000008152600401611e8b90613387565b60405180910390fd5b611e9f838383611079565b505050565b505050565b60008383834630604051602001611ec49594939291906133a7565b6040516020818303038152906040528051906020012090509392505050565b6000611eef6008611138565b905090565b60008083805490501415611f0b5760009050611fc8565b600080848054905090505b80821015611f6f576000611f2a8383612374565b905084868281548110611f4057611f3f61330c565b5b90600052602060002001541115611f5957809150611f69565b600181611f669190612979565b92505b50611f16565b600082118015611fa757508385600184611f899190613200565b81548110611f9a57611f9961330c565b5b9060005260206000200154145b15611fc257600182611fb99190613200565b92505050611fc8565b81925050505b92915050565b6001816000016000828254019250508190555050565b60008282604051602001611ff9929190613472565b60405160208183030381529060405280519060200120905092915050565b6000807f7fffffffffffffffffffffffffffffff5d576e7357a4501ddfe92f46681b20a08360001c111561205257600060039150915061211b565b601b8560ff161415801561206a5750601c8560ff1614155b1561207c57600060049150915061211b565b6000600187878787604051600081526020016040526040516120a194939291906134a9565b6020604051602081039080840390855afa1580156120c3573d6000803e3d6000fd5b505050602060405103519050600073ffffffffffffffffffffffffffffffffffffffff168173ffffffffffffffffffffffffffffffffffffffff1614156121125760006001925092505061211b565b80600092509250505b94509492505050565b60006004811115612138576121376134ee565b5b81600481111561214b5761214a6134ee565b5b1415612156576122f6565b6001600481111561216a576121696134ee565b5b81600481111561217d5761217c6134ee565b5b14156121be576040517f08c379a00000000000000000000000000000000000000000000000000000000081526004016121b590613569565b60405180910390fd5b600260048111156121d2576121d16134ee565b5b8160048111156121e5576121e46134ee565b5b1415612226576040517f08c379a000000000000000000000000000000000000000000000000000000000815260040161221d906135d5565b60405180910390fd5b6003600481111561223a576122396134ee565b5b81600481111561224d5761224c6134ee565b5b141561228e576040517f08c379a000000000000000000000000000000000000000000000000000000000815260040161228590613667565b60405180910390fd5b6004808111156122a1576122a06134ee565b5b8160048111156122b4576122b36134ee565b5b14156122f5576040517f08c379a00000000000000000000000000000000000000000000000000000000081526004016122ec906136f9565b60405180910390fd5b5b50565b6000612303611ee3565b9050806123128460000161239a565b101561236f5782600001819080600181540180825580915050600190039060005260206000200160009091909190915055826001018290806001815401808255809150506001900390600052602060002001600090919091909150555b505050565b600060028284186123859190613748565b8284166123929190612979565b905092915050565b600080828054905014156123b157600090506123e2565b81600183805490506123c39190613200565b815481106123d4576123d361330c565b5b906000526020600020015490505b919050565b600081519050919050565b600082825260208201905092915050565b60005b83811015612421578082015181840152602081019050612406565b83811115612430576000848401525b50505050565b6000601f19601f8301169050919050565b6000612452826123e7565b61245c81856123f2565b935061246c818560208601612403565b61247581612436565b840191505092915050565b6000602082019050818103600083015261249a8184612447565b905092915050565b600080fd5b600073ffffffffffffffffffffffffffffffffffffffff82169050919050565b60006124d2826124a7565b9050919050565b6124e2816124c7565b81146124ed57600080fd5b50565b6000813590506124ff816124d9565b92915050565b6000819050919050565b61251881612505565b811461252357600080fd5b50565b6000813590506125358161250f565b92915050565b60008060408385031215612552576125516124a2565b5b6000612560858286016124f0565b925050602061257185828601612526565b9150509250929050565b60008115159050919050565b6125908161257b565b82525050565b60006020820190506125ab6000830184612587565b92915050565b6125ba81612505565b82525050565b60006020820190506125d560008301846125b1565b92915050565b6000806000606084860312156125f4576125f36124a2565b5b6000612602868287016124f0565b9350506020612613868287016124f0565b925050604061262486828701612526565b9150509250925092565b600060ff82169050919050565b6126448161262e565b82525050565b600060208201905061265f600083018461263b565b92915050565b6000819050919050565b61267881612665565b82525050565b6000602082019050612693600083018461266f565b92915050565b6000602082840312156126af576126ae6124a2565b5b60006126bd84828501612526565b91505092915050565b6000602082840312156126dc576126db6124a2565b5b60006126ea848285016124f0565b91505092915050565b6126fc816124c7565b82525050565b600060208201905061271760008301846126f3565b92915050565b6127268161262e565b811461273157600080fd5b50565b6000813590506127438161271d565b92915050565b61275281612665565b811461275d57600080fd5b50565b60008135905061276f81612749565b92915050565b600080600080600080600060e0888a031215612794576127936124a2565b5b60006127a28a828b016124f0565b97505060206127b38a828b016124f0565b96505060406127c48a828b01612526565b95505060606127d58a828b01612526565b94505060806127e68a828b01612734565b93505060a06127f78a828b01612760565b92505060c06128088a828b01612760565b91505092959891949750929550565b6000806040838503121561282e5761282d6124a2565b5b600061283c858286016124f0565b925050602061284d858286016124f0565b9150509250929050565b7f4e487b7100000000000000000000000000000000000000000000000000000000600052602260045260246000fd5b6000600282049050600182168061289e57607f821691505b602082108114156128b2576128b1612857565b5b50919050565b7f45524332303a207472616e7366657220616d6f756e742065786365656473206160008201527f6c6c6f77616e6365000000000000000000000000000000000000000000000000602082015250565b60006129146028836123f2565b915061291f826128b8565b604082019050919050565b6000602082019050818103600083015261294381612907565b9050919050565b7f4e487b7100000000000000000000000000000000000000000000000000000000600052601160045260246000fd5b600061298482612505565b915061298f83612505565b9250827fffffffffffffffffffffffffffffffffffffffffffffffffffffffffffffffff038211156129c4576129c361294a565b5b828201905092915050565b7f4f776e61626c653a2063616c6c6572206973206e6f7420746865206f776e6572600082015250565b6000612a056020836123f2565b9150612a10826129cf565b602082019050919050565b60006020820190508181036000830152612a34816129f8565b9050919050565b7f45524332303a206275726e20616d6f756e74206578636565647320616c6c6f7760008201527f616e636500000000000000000000000000000000000000000000000000000000602082015250565b6000612a976024836123f2565b9150612aa282612a3b565b604082019050919050565b60006020820190508181036000830152612ac681612a8a565b9050919050565b7f45524332303a2064656372656173656420616c6c6f77616e63652062656c6f7760008201527f207a65726f000000000000000000000000000000000000000000000000000000602082015250565b6000612b296025836123f2565b9150612b3482612acd565b604082019050919050565b60006020820190508181036000830152612b5881612b1c565b9050919050565b7f45524332305065726d69743a206578706972656420646561646c696e65000000600082015250565b6000612b95601d836123f2565b9150612ba082612b5f565b602082019050919050565b60006020820190508181036000830152612bc481612b88565b9050919050565b600060c082019050612be0600083018961266f565b612bed60208301886126f3565b612bfa60408301876126f3565b612c0760608301866125b1565b612c1460808301856125b1565b612c2160a08301846125b1565b979650505050505050565b7f45524332305065726d69743a20696e76616c6964207369676e61747572650000600082015250565b6000612c62601e836123f2565b9150612c6d82612c2c565b602082019050919050565b60006020820190508181036000830152612c9181612c55565b9050919050565b7f4f776e61626c653a206e6577206f776e657220697320746865207a65726f206160008201527f6464726573730000000000000000000000000000000000000000000000000000602082015250565b6000612cf46026836123f2565b9150612cff82612c98565b604082019050919050565b60006020820190508181036000830152612d2381612ce7565b9050919050565b7f45524332303a20617070726f76652066726f6d20746865207a65726f2061646460008201527f7265737300000000000000000000000000000000000000000000000000000000602082015250565b6000612d866024836123f2565b9150612d9182612d2a565b604082019050919050565b60006020820190508181036000830152612db581612d79565b9050919050565b7f45524332303a20617070726f766520746f20746865207a65726f20616464726560008201527f7373000000000000000000000000000000000000000000000000000000000000602082015250565b6000612e186022836123f2565b9150612e2382612dbc565b604082019050919050565b60006020820190508181036000830152612e4781612e0b565b9050919050565b7f45524332303a207472616e736665722066726f6d20746865207a65726f20616460008201527f6472657373000000000000000000000000000000000000000000000000000000602082015250565b6000612eaa6025836123f2565b9150612eb582612e4e565b604082019050919050565b60006020820190508181036000830152612ed981612e9d565b9050919050565b7f45524332303a207472616e7366657220746f20746865207a65726f206164647260008201527f6573730000000000000000000000000000000000000000000000000000000000602082015250565b6000612f3c6023836123f2565b9150612f4782612ee0565b604082019050919050565b60006020820190508181036000830152612f6b81612f2f565b9050919050565b7f45524332303a207472616e7366657220616d6f756e742065786365656473206260008201527f616c616e63650000000000000000000000000000000000000000000000000000602082015250565b6000612fce6026836123f2565b9150612fd982612f72565b604082019050919050565b60006020820190508181036000830152612ffd81612fc1565b9050919050565b7f5061757361626c653a206e6f7420706175736564000000000000000000000000600082015250565b600061303a6014836123f2565b915061304582613004565b602082019050919050565b600060208201905081810360008301526130698161302d565b9050919050565b7f45524332303a206d696e7420746f20746865207a65726f206164647265737300600082015250565b60006130a6601f836123f2565b91506130b182613070565b602082019050919050565b600060208201905081810360008301526130d581613099565b9050919050565b7f45524332303a206275726e2066726f6d20746865207a65726f2061646472657360008201527f7300000000000000000000000000000000000000000000000000000000000000602082015250565b60006131386021836123f2565b9150613143826130dc565b604082019050919050565b600060208201905081810360008301526131678161312b565b9050919050565b7f45524332303a206275726e20616d6f756e7420657863656564732062616c616e60008201527f6365000000000000000000000000000000000000000000000000000000000000602082015250565b60006131ca6022836123f2565b91506131d58261316e565b604082019050919050565b600060208201905081810360008301526131f9816131bd565b9050919050565b600061320b82612505565b915061321683612505565b9250828210156132295761322861294a565b5b828203905092915050565b7f4552433230536e617073686f743a206964206973203000000000000000000000600082015250565b600061326a6016836123f2565b915061327582613234565b602082019050919050565b600060208201905081810360008301526132998161325d565b9050919050565b7f4552433230536e617073686f743a206e6f6e6578697374656e74206964000000600082015250565b60006132d6601d836123f2565b91506132e1826132a0565b602082019050919050565b60006020820190508181036000830152613305816132c9565b9050919050565b7f4e487b7100000000000000000000000000000000000000000000000000000000600052603260045260246000fd5b7f5061757361626c653a2070617573656400000000000000000000000000000000600082015250565b60006133716010836123f2565b915061337c8261333b565b602082019050919050565b600060208201905081810360008301526133a081613364565b9050919050565b600060a0820190506133bc600083018861266f565b6133c9602083018761266f565b6133d6604083018661266f565b6133e360608301856125b1565b6133f060808301846126f3565b9695505050505050565b600081905092915050565b7f1901000000000000000000000000000000000000000000000000000000000000600082015250565b600061343b6002836133fa565b915061344682613405565b600282019050919050565b6000819050919050565b61346c61346782612665565b613451565b82525050565b600061347d8261342e565b9150613489828561345b565b602082019150613499828461345b565b6020820191508190509392505050565b60006080820190506134be600083018761266f565b6134cb602083018661263b565b6134d8604083018561266f565b6134e5606083018461266f565b95945050505050565b7f4e487b7100000000000000000000000000000000000000000000000000000000600052602160045260246000fd5b7f45434453413a20696e76616c6964207369676e61747572650000000000000000600082015250565b60006135536018836123f2565b915061355e8261351d565b602082019050919050565b6000602082019050818103600083015261358281613546565b9050919050565b7f45434453413a20696e76616c6964207369676e6174757265206c656e67746800600082015250565b60006135bf601f836123f2565b91506135ca82613589565b602082019050919050565b600060208201905081810360008301526135ee816135b2565b9050919050565b7f45434453413a20696e76616c6964207369676e6174757265202773272076616c60008201527f7565000000000000000000000000000000000000000000000000000000000000602082015250565b60006136516022836123f2565b915061365c826135f5565b604082019050919050565b6000602082019050818103600083015261368081613644565b9050919050565b7f45434453413a20696e76616c6964207369676e6174757265202776272076616c60008201527f7565000000000000000000000000000000000000000000000000000000000000602082015250565b60006136e36022836123f2565b91506136ee82613687565b604082019050919050565b60006020820190508181036000830152613712816136d6565b9050919050565b7f4e487b7100000000000000000000000000000000000000000000000000000000600052601260045260246000fd5b600061375382612505565b915061375e83612505565b92508261376e5761376d613719565b5b82820490509291505056fea26469706673582212208e09711388dc26a920b3dcf85949d0907a60df25bb2ad7bd1ae28cb5559a96fd64736f6c634300080a0033",
  "immutableReferences": {
    "1303": [
      {
        "length": 32,
        "start": 3583
      }
    ],
    "2260": [
      {
        "length": 32,
        "start": 5661
      }
    ],
    "2262": [
      {
        "length": 32,
        "start": 5620
      }
    ],
    "2264": [
      {
        "length": 32,
        "start": 5534
      }
    ],
    "2266": [
      {
        "length": 32,
        "start": 5737
      }
    ],
    "2268": [
      {
        "length": 32,
        "start": 5770
      }
    ],
    "2270": [
      {
        "length": 32,
        "start": 5704
      }
    ]
  },
  "source": "// SPDX-License-Identifier: MIT\npragma solidity ^0.8.2;\n\nimport \"@openzeppelin/contracts/token/ERC20/ERC20.sol\";\nimport \"@openzeppelin/contracts/token/ERC20/extensions/ERC20Burnable.sol\";\nimport \"@openzeppelin/contracts/token/ERC20/extensions/ERC20Snapshot.sol\";\nimport \"@openzeppelin/contracts/access/Ownable.sol\";\nimport \"@openzeppelin/contracts/security/Pausable.sol\";\nimport \"@openzeppelin/contracts/token/ERC20/extensions/draft-ERC20Permit.sol\";\n\ncontract MissuToken is ERC20, ERC20Burnable, ERC20Snapshot, Ownable, Pausable, ERC20Permit {\n    constructor() ERC20(\"Missu Token\", \"MST\") ERC20Permit(\"Missu Token\") {\n        _mint(msg.sender, 1000000 * 10 ** decimals());\n        _mint(address(this), 1000000 * 10 ** decimals());\n    }\n\n    function snapshot() public onlyOwner {\n        _snapshot();\n    }\n\n    function pause() public onlyOwner {\n        _pause();\n    }\n\n    function unpause() public onlyOwner {\n        _unpause();\n    }\n\n    function mint(address to, uint256 amount) public onlyOwner {\n        _mint(to, amount);\n    }\n\n    function _beforeTokenTransfer(address from, address to, uint256 amount)\n        internal\n        whenNotPaused\n        override(ERC20, ERC20Snapshot)\n    {\n        super._beforeTokenTransfer(from, to, amount);\n    }\n}\n",
  "sourcePath": "/Users/huuthang/Desktop/presale/contracts/MissuToken.sol",
  "compiler": {
    "name": "solc",
    "version": "0.8.10+commit.fc410830.Emscripten.clang"
  },
  "schemaVersion": "3.4.4",
  "updatedAt": "2022-01-04T07:13:29.410Z",
  "networkType": "ethereum",
  "devdoc": {
    "kind": "dev",
    "methods": {
      "DOMAIN_SEPARATOR()": {
        "details": "See {IERC20Permit-DOMAIN_SEPARATOR}."
      },
      "allowance(address,address)": {
        "details": "See {IERC20-allowance}."
      },
      "approve(address,uint256)": {
        "details": "See {IERC20-approve}. Requirements: - `spender` cannot be the zero address."
      },
      "balanceOf(address)": {
        "details": "See {IERC20-balanceOf}."
      },
      "balanceOfAt(address,uint256)": {
        "details": "Retrieves the balance of `account` at the time `snapshotId` was created."
      },
      "burn(uint256)": {
        "details": "Destroys `amount` tokens from the caller. See {ERC20-_burn}."
      },
      "burnFrom(address,uint256)": {
        "details": "Destroys `amount` tokens from `account`, deducting from the caller's allowance. See {ERC20-_burn} and {ERC20-allowance}. Requirements: - the caller must have allowance for ``accounts``'s tokens of at least `amount`."
      },
      "decimals()": {
        "details": "Returns the number of decimals used to get its user representation. For example, if `decimals` equals `2`, a balance of `505` tokens should be displayed to a user as `5.05` (`505 / 10 ** 2`). Tokens usually opt for a value of 18, imitating the relationship between Ether and Wei. This is the value {ERC20} uses, unless this function is overridden; NOTE: This information is only used for _display_ purposes: it in no way affects any of the arithmetic of the contract, including {IERC20-balanceOf} and {IERC20-transfer}."
      },
      "decreaseAllowance(address,uint256)": {
        "details": "Atomically decreases the allowance granted to `spender` by the caller. This is an alternative to {approve} that can be used as a mitigation for problems described in {IERC20-approve}. Emits an {Approval} event indicating the updated allowance. Requirements: - `spender` cannot be the zero address. - `spender` must have allowance for the caller of at least `subtractedValue`."
      },
      "increaseAllowance(address,uint256)": {
        "details": "Atomically increases the allowance granted to `spender` by the caller. This is an alternative to {approve} that can be used as a mitigation for problems described in {IERC20-approve}. Emits an {Approval} event indicating the updated allowance. Requirements: - `spender` cannot be the zero address."
      },
      "name()": {
        "details": "Returns the name of the token."
      },
      "nonces(address)": {
        "details": "See {IERC20Permit-nonces}."
      },
      "owner()": {
        "details": "Returns the address of the current owner."
      },
      "paused()": {
        "details": "Returns true if the contract is paused, and false otherwise."
      },
      "permit(address,address,uint256,uint256,uint8,bytes32,bytes32)": {
        "details": "See {IERC20Permit-permit}."
      },
      "renounceOwnership()": {
        "details": "Leaves the contract without owner. It will not be possible to call `onlyOwner` functions anymore. Can only be called by the current owner. NOTE: Renouncing ownership will leave the contract without an owner, thereby removing any functionality that is only available to the owner."
      },
      "symbol()": {
        "details": "Returns the symbol of the token, usually a shorter version of the name."
      },
      "totalSupply()": {
        "details": "See {IERC20-totalSupply}."
      },
      "totalSupplyAt(uint256)": {
        "details": "Retrieves the total supply at the time `snapshotId` was created."
      },
      "transfer(address,uint256)": {
        "details": "See {IERC20-transfer}. Requirements: - `recipient` cannot be the zero address. - the caller must have a balance of at least `amount`."
      },
      "transferFrom(address,address,uint256)": {
        "details": "See {IERC20-transferFrom}. Emits an {Approval} event indicating the updated allowance. This is not required by the EIP. See the note at the beginning of {ERC20}. Requirements: - `sender` and `recipient` cannot be the zero address. - `sender` must have a balance of at least `amount`. - the caller must have allowance for ``sender``'s tokens of at least `amount`."
      },
      "transferOwnership(address)": {
        "details": "Transfers ownership of the contract to a new account (`newOwner`). Can only be called by the current owner."
      }
    },
    "version": 1
  },
  "userdoc": {
    "kind": "user",
    "methods": {},
    "version": 1
  }
}