{
  "contractName": "Presale",
  "abi": [
    {
      "inputs": [
        {
          "internalType": "contract MissuToken",
          "name": "_token",
          "type": "address"
        },
        {
          "internalType": "uint256",
          "name": "_rate",
          "type": "uint256"
        },
        {
          "internalType": "uint256",
          "name": "_openingTime",
          "type": "uint256"
        },
        {
          "internalType": "uint256",
          "name": "_closingTime",
          "type": "uint256"
        },
        {
          "internalType": "uint256",
          "name": "_minCap",
          "type": "uint256"
        },
        {
          "internalType": "uint256",
          "name": "_maxCap",
          "type": "uint256"
        }
      ],
      "stateMutability": "payable",
      "type": "constructor",
      "payable": true
    },
    {
      "anonymous": false,
      "inputs": [
        {
          "indexed": true,
          "internalType": "address",
          "name": "user",
          "type": "address"
        },
        {
          "indexed": false,
          "internalType": "uint256",
          "name": "amount",
          "type": "uint256"
        },
        {
          "indexed": false,
          "internalType": "uint256",
          "name": "time",
          "type": "uint256"
        }
      ],
      "name": "ClaimToken",
      "type": "event"
    },
    {
      "anonymous": false,
      "inputs": [
        {
          "indexed": true,
          "internalType": "address",
          "name": "buyer",
          "type": "address"
        },
        {
          "indexed": false,
          "internalType": "uint256",
          "name": "value",
          "type": "uint256"
        },
        {
          "indexed": false,
          "internalType": "uint256",
          "name": "amount",
          "type": "uint256"
        }
      ],
      "name": "TokenPurchase",
      "type": "event"
    },
    {
      "inputs": [
        {
          "internalType": "address",
          "name": "",
          "type": "address"
        }
      ],
      "name": "balance",
      "outputs": [
        {
          "internalType": "uint256",
          "name": "",
          "type": "uint256"
        }
      ],
      "stateMutability": "view",
      "type": "function",
      "constant": true
    },
    {
      "inputs": [
        {
          "internalType": "address",
          "name": "",
          "type": "address"
        }
      ],
      "name": "bought_amount",
      "outputs": [
        {
          "internalType": "uint256",
          "name": "",
          "type": "uint256"
        }
      ],
      "stateMutability": "view",
      "type": "function",
      "constant": true
    },
    {
      "inputs": [
        {
          "internalType": "address",
          "name": "",
          "type": "address"
        }
      ],
      "name": "latestClaimTime",
      "outputs": [
        {
          "internalType": "uint256",
          "name": "",
          "type": "uint256"
        }
      ],
      "stateMutability": "view",
      "type": "function",
      "constant": true
    },
    {
      "inputs": [],
      "name": "owner",
      "outputs": [
        {
          "internalType": "address payable",
          "name": "",
          "type": "address"
        }
      ],
      "stateMutability": "view",
      "type": "function",
      "constant": true
    },
    {
      "inputs": [],
      "name": "token",
      "outputs": [
        {
          "internalType": "contract MissuToken",
          "name": "",
          "type": "address"
        }
      ],
      "stateMutability": "view",
      "type": "function",
      "constant": true
    },
    {
      "inputs": [
        {
          "internalType": "address",
          "name": "",
          "type": "address"
        }
      ],
      "name": "whitelist",
      "outputs": [
        {
          "internalType": "bool",
          "name": "",
          "type": "bool"
        }
      ],
      "stateMutability": "view",
      "type": "function",
      "constant": true
    },
    {
      "inputs": [
        {
          "internalType": "address",
          "name": "_address",
          "type": "address"
        }
      ],
      "name": "addToWhitelist",
      "outputs": [],
      "stateMutability": "nonpayable",
      "type": "function"
    },
    {
      "inputs": [
        {
          "internalType": "address[]",
          "name": "_addresses",
          "type": "address[]"
        }
      ],
      "name": "addAddressesToWhitelist",
      "outputs": [],
      "stateMutability": "nonpayable",
      "type": "function"
    },
    {
      "inputs": [
        {
          "internalType": "address",
          "name": "_address",
          "type": "address"
        }
      ],
      "name": "hasWhitelisted",
      "outputs": [
        {
          "internalType": "bool",
          "name": "",
          "type": "bool"
        }
      ],
      "stateMutability": "view",
      "type": "function",
      "constant": true
    },
    {
      "inputs": [
        {
          "internalType": "address",
          "name": "_address",
          "type": "address"
        }
      ],
      "name": "removeFromWhitelist",
      "outputs": [],
      "stateMutability": "nonpayable",
      "type": "function"
    },
    {
      "inputs": [
        {
          "internalType": "address",
          "name": "_address",
          "type": "address"
        }
      ],
      "name": "buyTokens",
      "outputs": [],
      "stateMutability": "payable",
      "type": "function",
      "payable": true
    },
    {
      "inputs": [
        {
          "internalType": "address",
          "name": "_address",
          "type": "address"
        }
      ],
      "name": "claim",
      "outputs": [],
      "stateMutability": "payable",
      "type": "function",
      "payable": true
    },
    {
      "inputs": [
        {
          "internalType": "address",
          "name": "_address",
          "type": "address"
        }
      ],
      "name": "getClaimableAmount",
      "outputs": [
        {
          "internalType": "uint256",
          "name": "",
          "type": "uint256"
        }
      ],
      "stateMutability": "view",
      "type": "function",
      "constant": true
    },
    {
      "inputs": [
        {
          "internalType": "address",
          "name": "_address",
          "type": "address"
        }
      ],
      "name": "isClaimable",
      "outputs": [
        {
          "internalType": "bool",
          "name": "",
          "type": "bool"
        }
      ],
      "stateMutability": "view",
      "type": "function",
      "constant": true
    }
  ],
  "bytecode": "0x6080604052604051620020bf380380620020bf8339818101604052810190620000299190620002b2565b600160008190555033600760006101000a81548173ffffffffffffffffffffffffffffffffffffffff021916908373ffffffffffffffffffffffffffffffffffffffff16021790555085600160006101000a81548173ffffffffffffffffffffffffffffffffffffffff021916908373ffffffffffffffffffffffffffffffffffffffff160217905550846006819055504284101562000100576040517f08c379a0000000000000000000000000000000000000000000000000000000008152600401620000f790620003d5565b60405180910390fd5b8383101562000146576040517f08c379a00000000000000000000000000000000000000000000000000000000081526004016200013d906200046d565b60405180910390fd5b8360028190555082600381905550600082116200019a576040517f08c379a00000000000000000000000000000000000000000000000000000000081526004016200019190620004df565b60405180910390fd5b818111620001df576040517f08c379a0000000000000000000000000000000000000000000000000000000008152600401620001d69062000577565b60405180910390fd5b816004819055508060058190555050505050505062000599565b600080fd5b600073ffffffffffffffffffffffffffffffffffffffff82169050919050565b60006200022b82620001fe565b9050919050565b60006200023f826200021e565b9050919050565b620002518162000232565b81146200025d57600080fd5b50565b600081519050620002718162000246565b92915050565b6000819050919050565b6200028c8162000277565b81146200029857600080fd5b50565b600081519050620002ac8162000281565b92915050565b60008060008060008060c08789031215620002d257620002d1620001f9565b5b6000620002e289828a0162000260565b9650506020620002f589828a016200029b565b95505060406200030889828a016200029b565b94505060606200031b89828a016200029b565b93505060806200032e89828a016200029b565b92505060a06200034189828a016200029b565b9150509295509295509295565b600082825260208201905092915050565b7f6f70656e696e672074696d65206d75737420626520616674657220637572726560008201527f6e742074696d657374616d700000000000000000000000000000000000000000602082015250565b6000620003bd602c836200034e565b9150620003ca826200035f565b604082019050919050565b60006020820190508181036000830152620003f081620003ae565b9050919050565b7f636c6f73696e672074696d65206d757374206265206166746572206f70656e6960008201527f6e672074696d6500000000000000000000000000000000000000000000000000602082015250565b6000620004556027836200034e565b91506200046282620003f7565b604082019050919050565b60006020820190508181036000830152620004888162000446565b9050919050565b7f6d696e20436170206d757374206265206c6172676572207468616e205a65726f600082015250565b6000620004c76020836200034e565b9150620004d4826200048f565b602082019050919050565b60006020820190508181036000830152620004fa81620004b8565b9050919050565b7f6d617820436170206d757374206265206c6172676572207468616e206d696e2060008201527f4361700000000000000000000000000000000000000000000000000000000000602082015250565b60006200055f6023836200034e565b91506200056c8262000501565b604082019050919050565b60006020820190508181036000830152620005928162000550565b9050919050565b611b1680620005a96000396000f3fe6080604052600436106100dd5760003560e01c80639b19251a1161007f578063e3d670d711610059578063e3d670d7146102e9578063e43252d714610326578063ec8ac4d81461034f578063fc0c546a1461036b576100dd565b80639b19251a14610246578063e12f3a6114610283578063e2ec6ec3146102c0576100dd565b8063736a6a7c116100bb578063736a6a7c146101785780638ab1d681146101b55780638da5cb5b146101de57806397a3820214610209576100dd565b80631e83409a146100e2578063292fec04146100fe5780635b2ee4041461013b575b600080fd5b6100fc60048036038101906100f7919061101f565b610396565b005b34801561010a57600080fd5b506101256004803603810190610120919061101f565b6107e8565b6040516101329190611067565b60405180910390f35b34801561014757600080fd5b50610162600480360381019061015d919061101f565b61085f565b60405161016f919061109b565b60405180910390f35b34801561018457600080fd5b5061019f600480360381019061019a919061101f565b610877565b6040516101ac9190611067565b60405180910390f35b3480156101c157600080fd5b506101dc60048036038101906101d7919061101f565b6108cd565b005b3480156101ea57600080fd5b506101f36109b8565b60405161020091906110d7565b60405180910390f35b34801561021557600080fd5b50610230600480360381019061022b919061101f565b6109de565b60405161023d919061109b565b60405180910390f35b34801561025257600080fd5b5061026d6004803603810190610268919061101f565b6109f6565b60405161027a9190611067565b60405180910390f35b34801561028f57600080fd5b506102aa60048036038101906102a5919061101f565b610a16565b6040516102b7919061109b565b60405180910390f35b3480156102cc57600080fd5b506102e760048036038101906102e2919061124b565b610a7c565b005b3480156102f557600080fd5b50610310600480360381019061030b919061101f565b610ba1565b60405161031d919061109b565b60405180910390f35b34801561033257600080fd5b5061034d6004803603810190610348919061101f565b610bb9565b005b6103696004803603810190610364919061101f565b610ca4565b005b34801561037757600080fd5b50610380610f43565b60405161038d91906112f3565b60405180910390f35b600860003373ffffffffffffffffffffffffffffffffffffffff1673ffffffffffffffffffffffffffffffffffffffff16815260200190815260200160002060009054906101000a900460ff16610422576040517f08c379a00000000000000000000000000000000000000000000000000000000081526004016104199061136b565b60405180910390fd5b6003544211610466576040517f08c379a000000000000000000000000000000000000000000000000000000000815260040161045d906113d7565b60405180910390fd5b600260005414156104ac576040517f08c379a00000000000000000000000000000000000000000000000000000000081526004016104a390611443565b60405180910390fd5b60026000819055506104c060035442610f69565b6104ff576040517f08c379a00000000000000000000000000000000000000000000000000000000081526004016104f6906114d5565b60405180910390fd5b610508816107e8565b610547576040517f08c379a000000000000000000000000000000000000000000000000000000000815260040161053e90611567565b60405180910390fd5b600061055282610a16565b905060008111610597576040517f08c379a000000000000000000000000000000000000000000000000000000000815260040161058e906115f9565b60405180910390fd5b600a60008373ffffffffffffffffffffffffffffffffffffffff1673ffffffffffffffffffffffffffffffffffffffff16815260200190815260200160002054811115610619576040517f08c379a000000000000000000000000000000000000000000000000000000000815260040161061090611665565b60405180910390fd5b600160009054906101000a900473ffffffffffffffffffffffffffffffffffffffff1673ffffffffffffffffffffffffffffffffffffffff1663a9059cbb83836040518363ffffffff1660e01b8152600401610676929190611694565b6020604051808303816000875af1158015610695573d6000803e3d6000fd5b505050506040513d601f19601f820116820180604052508101906106b991906116e9565b5080600a60008473ffffffffffffffffffffffffffffffffffffffff1673ffffffffffffffffffffffffffffffffffffffff168152602001908152602001600020546107059190611745565b600a60008473ffffffffffffffffffffffffffffffffffffffff1673ffffffffffffffffffffffffffffffffffffffff168152602001908152602001600020819055508173ffffffffffffffffffffffffffffffffffffffff167f7f4752786b0cfdd93a4b6e1f0e393299418bbc5c583bc16bc0edd3f3ae193e0e8242604051610790929190611779565b60405180910390a242600b60008473ffffffffffffffffffffffffffffffffffffffff1673ffffffffffffffffffffffffffffffffffffffff1681526020019081526020016000208190555050600160008190555050565b6000804290506000600b60008573ffffffffffffffffffffffffffffffffffffffff1673ffffffffffffffffffffffffffffffffffffffff16815260200190815260200160002054905062278d008161084191906117a2565b8211156108535760019250505061085a565b6000925050505b919050565b600b6020528060005260406000206000915090505481565b6000600860008373ffffffffffffffffffffffffffffffffffffffff1673ffffffffffffffffffffffffffffffffffffffff16815260200190815260200160002060009054906101000a900460ff169050919050565b600760009054906101000a900473ffffffffffffffffffffffffffffffffffffffff1673ffffffffffffffffffffffffffffffffffffffff163373ffffffffffffffffffffffffffffffffffffffff161461095d576040517f08c379a00000000000000000000000000000000000000000000000000000000081526004016109549061186a565b60405180910390fd5b6000600860008373ffffffffffffffffffffffffffffffffffffffff1673ffffffffffffffffffffffffffffffffffffffff16815260200190815260200160002060006101000a81548160ff02191690831515021790555050565b600760009054906101000a900473ffffffffffffffffffffffffffffffffffffffff1681565b60096020528060005260406000206000915090505481565b60086020528060005260406000206000915054906101000a900460ff1681565b60008060646019600960008673ffffffffffffffffffffffffffffffffffffffff1673ffffffffffffffffffffffffffffffffffffffff16815260200190815260200160002054610a67919061188a565b610a719190611913565b905080915050919050565b600760009054906101000a900473ffffffffffffffffffffffffffffffffffffffff1673ffffffffffffffffffffffffffffffffffffffff163373ffffffffffffffffffffffffffffffffffffffff1614610b0c576040517f08c379a0000000000000000000000000000000000000000000000000000000008152600401610b039061186a565b60405180910390fd5b60005b8151811015610b9d57600160086000848481518110610b3157610b30611944565b5b602002602001015173ffffffffffffffffffffffffffffffffffffffff1673ffffffffffffffffffffffffffffffffffffffff16815260200190815260200160002060006101000a81548160ff0219169083151502179055508080610b9590611973565b915050610b0f565b5050565b600a6020528060005260406000206000915090505481565b600760009054906101000a900473ffffffffffffffffffffffffffffffffffffffff1673ffffffffffffffffffffffffffffffffffffffff163373ffffffffffffffffffffffffffffffffffffffff1614610c49576040517f08c379a0000000000000000000000000000000000000000000000000000000008152600401610c409061186a565b60405180910390fd5b6001600860008373ffffffffffffffffffffffffffffffffffffffff1673ffffffffffffffffffffffffffffffffffffffff16815260200190815260200160002060006101000a81548160ff02191690831515021790555050565b600860003373ffffffffffffffffffffffffffffffffffffffff1673ffffffffffffffffffffffffffffffffffffffff16815260200190815260200160002060009054906101000a900460ff16610d30576040517f08c379a0000000000000000000000000000000000000000000000000000000008152600401610d279061136b565b60405180910390fd5b60003490506000610d4082610f96565b9050600081600960008673ffffffffffffffffffffffffffffffffffffffff1673ffffffffffffffffffffffffffffffffffffffff16815260200190815260200160002054610d8f91906117a2565b9050600454811015610dd6576040517f08c379a0000000000000000000000000000000000000000000000000000000008152600401610dcd90611a2e565b60405180910390fd5b600554811115610e1b576040517f08c379a0000000000000000000000000000000000000000000000000000000008152600401610e1290611ac0565b60405180910390fd5b80600960008673ffffffffffffffffffffffffffffffffffffffff1673ffffffffffffffffffffffffffffffffffffffff1681526020019081526020016000208190555081600a60008673ffffffffffffffffffffffffffffffffffffffff1673ffffffffffffffffffffffffffffffffffffffff16815260200190815260200160002054610eaa91906117a2565b600a60008673ffffffffffffffffffffffffffffffffffffffff1673ffffffffffffffffffffffffffffffffffffffff168152602001908152602001600020819055508373ffffffffffffffffffffffffffffffffffffffff167fcd60aa75dea3072fbc07ae6d7d856b5dc5f4eee88854f5b4abf7b680ef8bc50f8484604051610f35929190611779565b60405180910390a250505050565b600160009054906101000a900473ffffffffffffffffffffffffffffffffffffffff1681565b6000808383610f789190611745565b9050600162278d0082610f8b9190611913565b101591505092915050565b600060065482610fa6919061188a565b9050919050565b6000604051905090565b600080fd5b600080fd5b600073ffffffffffffffffffffffffffffffffffffffff82169050919050565b6000610fec82610fc1565b9050919050565b610ffc81610fe1565b811461100757600080fd5b50565b60008135905061101981610ff3565b92915050565b60006020828403121561103557611034610fb7565b5b60006110438482850161100a565b91505092915050565b60008115159050919050565b6110618161104c565b82525050565b600060208201905061107c6000830184611058565b92915050565b6000819050919050565b61109581611082565b82525050565b60006020820190506110b0600083018461108c565b92915050565b60006110c182610fc1565b9050919050565b6110d1816110b6565b82525050565b60006020820190506110ec60008301846110c8565b92915050565b600080fd5b6000601f19601f8301169050919050565b7f4e487b7100000000000000000000000000000000000000000000000000000000600052604160045260246000fd5b611140826110f7565b810181811067ffffffffffffffff8211171561115f5761115e611108565b5b80604052505050565b6000611172610fad565b905061117e8282611137565b919050565b600067ffffffffffffffff82111561119e5761119d611108565b5b602082029050602081019050919050565b600080fd5b60006111c76111c284611183565b611168565b905080838252602082019050602084028301858111156111ea576111e96111af565b5b835b8181101561121357806111ff888261100a565b8452602084019350506020810190506111ec565b5050509392505050565b600082601f830112611232576112316110f2565b5b81356112428482602086016111b4565b91505092915050565b60006020828403121561126157611260610fb7565b5b600082013567ffffffffffffffff81111561127f5761127e610fbc565b5b61128b8482850161121d565b91505092915050565b6000819050919050565b60006112b96112b46112af84610fc1565b611294565b610fc1565b9050919050565b60006112cb8261129e565b9050919050565b60006112dd826112c0565b9050919050565b6112ed816112d2565b82525050565b600060208201905061130860008301846112e4565b92915050565b600082825260208201905092915050565b7f41646472657373206973206e6f742077686974656c6973746564000000000000600082015250565b6000611355601a8361130e565b91506113608261131f565b602082019050919050565b6000602082019050818103600083015261138481611348565b9050919050565b7f5468652070726573616c65206973206e6f7420636c6f73656421000000000000600082015250565b60006113c1601a8361130e565b91506113cc8261138b565b602082019050919050565b600060208201905081810360008301526113f0816113b4565b9050919050565b7f5265656e7472616e637947756172643a207265656e7472616e742063616c6c00600082015250565b600061142d601f8361130e565b9150611438826113f7565b602082019050919050565b6000602082019050818103600083015261145c81611420565b9050919050565b7f546f6b656e73206f6e6c7920636c61696d61626c65206166746572206f6e652060008201527f6d6f6e7468000000000000000000000000000000000000000000000000000000602082015250565b60006114bf60258361130e565b91506114ca82611463565b604082019050919050565b600060208201905081810360008301526114ee816114b2565b9050919050565b7f546f6b656e73206f6e6c792063616e20626520636c61696d6564206f6e65207060008201527f6572206d6f6e7468000000000000000000000000000000000000000000000000602082015250565b600061155160288361130e565b915061155c826114f5565b604082019050919050565b6000602082019050818103600083015261158081611544565b9050919050565b7f546f6b656e20616d6f756e74206d757374206265206c6172676572207468616e60008201527f205a65726f210000000000000000000000000000000000000000000000000000602082015250565b60006115e360268361130e565b91506115ee82611587565b604082019050919050565b60006020820190508181036000830152611612816115d6565b9050919050565b7f496e76616c696420636c61696d61626c6520616d6f756e742100000000000000600082015250565b600061164f60198361130e565b915061165a82611619565b602082019050919050565b6000602082019050818103600083015261167e81611642565b9050919050565b61168e81610fe1565b82525050565b60006040820190506116a96000830185611685565b6116b6602083018461108c565b9392505050565b6116c68161104c565b81146116d157600080fd5b50565b6000815190506116e3816116bd565b92915050565b6000602082840312156116ff576116fe610fb7565b5b600061170d848285016116d4565b91505092915050565b7f4e487b7100000000000000000000000000000000000000000000000000000000600052601160045260246000fd5b600061175082611082565b915061175b83611082565b92508282101561176e5761176d611716565b5b828203905092915050565b600060408201905061178e600083018561108c565b61179b602083018461108c565b9392505050565b60006117ad82611082565b91506117b883611082565b9250827fffffffffffffffffffffffffffffffffffffffffffffffffffffffffffffffff038211156117ed576117ec611716565b5b828201905092915050565b7f4d75737420626520746865204f776e657220746f20706572666f726d2074686960008201527f7320616374696f6e210000000000000000000000000000000000000000000000602082015250565b600061185460298361130e565b915061185f826117f8565b604082019050919050565b6000602082019050818103600083015261188381611847565b9050919050565b600061189582611082565b91506118a083611082565b9250817fffffffffffffffffffffffffffffffffffffffffffffffffffffffffffffffff04831182151516156118d9576118d8611716565b5b828202905092915050565b7f4e487b7100000000000000000000000000000000000000000000000000000000600052601260045260246000fd5b600061191e82611082565b915061192983611082565b925082611939576119386118e4565b5b828204905092915050565b7f4e487b7100000000000000000000000000000000000000000000000000000000600052603260045260246000fd5b600061197e82611082565b91507fffffffffffffffffffffffffffffffffffffffffffffffffffffffffffffffff8214156119b1576119b0611716565b5b600182019050919050565b7f546f6b656e7320616d6f756e74206d757374206265206c61726765722074686160008201527f6e206d696e204361700000000000000000000000000000000000000000000000602082015250565b6000611a1860298361130e565b9150611a23826119bc565b604082019050919050565b60006020820190508181036000830152611a4781611a0b565b9050919050565b7f546f6b656e7320616d6f756e74206d75737420626520736d616c6c657220746860008201527f616e206d61782043617000000000000000000000000000000000000000000000602082015250565b6000611aaa602a8361130e565b9150611ab582611a4e565b604082019050919050565b60006020820190508181036000830152611ad981611a9d565b905091905056fea264697066735822122096a620514b753572a59483622ab08e17cfbbf2591d82fbfea8abaab064a4f79c64736f6c634300080a0033",
  "immutableReferences": {},
  "source": "pragma solidity ^0.8.0;\n\nimport \"@openzeppelin/contracts/token/ERC20/ERC20.sol\";\nimport \"@openzeppelin/contracts/security/ReentrancyGuard.sol\";\nimport \"./MissuToken.sol\";\n\ncontract Presale is ReentrancyGuard{\n\n    // The token being sold\n    MissuToken public token;\n    \n    // The open and close time of Presale\n    uint256 private openingTime;\n    uint256 private closingTime;\n\n    // Min cap and max cap\n    uint256 private minCap;\n    uint256 private maxCap;\n\n    // How many token units a buyer gets per wei\n    uint256 private rate;\n\n    // Owner address\n    address payable public owner;\n    mapping(address => bool) public whitelist;\n\n    // The tokens amount the buyer bought\n    mapping(address => uint256) public bought_amount;\n\n    // The user's balance\n    mapping(address => uint256) public balance;\n\n    //Lastest claim time\n    mapping(address => uint256) public latestClaimTime;\n\n    event TokenPurchase(\n        address indexed buyer,\n        uint256 value,\n        uint256 amount\n    );\n\n    event ClaimToken(\n        address indexed user,\n        uint256 amount,\n        uint256 time\n    );\n\n    constructor(MissuToken _token, uint256 _rate, uint256 _openingTime, uint256 _closingTime, \n                uint256 _minCap, uint256 _maxCap) payable {\n        owner = payable(msg.sender);\n        token = _token;\n        //token.mint(address(this), 1000000); //min 1M Token to this contract address\n        rate = _rate;\n\n        require(_openingTime >= block.timestamp, \"opening time must be after current timestamp\");\n        require(_closingTime >= _openingTime, \"closing time must be after opening time\");\n\n        openingTime = _openingTime;\n        closingTime = _closingTime;\n\n        require(_minCap > 0, \"min Cap must be larger than Zero\");\n        require(_maxCap > _minCap, \"max Cap must be larger than min Cap\");\n        minCap = _minCap;\n        maxCap = _maxCap;\n    }\n\n    modifier onlyOwner {\n        require(msg.sender == owner, \"Must be the Owner to perform this action!\");\n        _;\n    }\n\n    modifier isWhitelisted {\n        require(whitelist[msg.sender], \"Address is not whitelisted\");\n        _;\n    }\n\n    modifier onlyWhileOpen {\n        require(block.timestamp >= openingTime && block.timestamp <= closingTime, \"Event is not start yet or closed!\");\n        _;\n    }\n\n    modifier isPresaleClosed() {\n        require(block.timestamp > closingTime, \"The presale is not closed!\");\n        _;\n    }\n\n    // add one address to the whitelist\n    function addToWhitelist(address _address) external onlyOwner {\n      whitelist[_address] = true;\n    }\n\n    // add addresses to the whitelist\n    function addAddressesToWhitelist(address[] memory _addresses) external onlyOwner {\n        for (uint256 i = 0; i < _addresses.length; i++) {\n            whitelist[_addresses[i]] = true;\n        }\n    }\n\n    // check if the address is whitelisted\n    function hasWhitelisted(address _address) external view returns(bool){\n      return whitelist[_address];\n    }\n\n    // Remove address from the whitelist\n    function removeFromWhitelist(address _address) external onlyOwner {\n        whitelist[_address] = false;\n    }\n \n    // Investors can buy token only if they are whitelisted by Contract owner\n    function buyTokens(address _address) public payable isWhitelisted {\n        uint256 paid_amount = msg.value;\n        uint256 token_amount = _caculateTokenAmount(paid_amount);\n        uint256 total_amount = bought_amount[_address] + token_amount;\n\n        require(total_amount >= minCap, \"Tokens amount must be larger than min Cap\");\n        require(total_amount <= maxCap, \"Tokens amount must be smaller than max Cap\");\n\n        bought_amount[_address] = total_amount;\n        balance[_address] = balance[_address] + token_amount;\n        emit TokenPurchase(_address, paid_amount, token_amount);\n        //claimable_amount[_address] = token_amount;\n    }\n\n    // Trigger token claim from investor\n    function claim(address _address) public payable isWhitelisted isPresaleClosed nonReentrant {\n        require(_isOverOneMonth(closingTime, block.timestamp), \"Tokens only claimable after one month\");\n        require(isClaimable(_address), \"Tokens only can be claimed one per month\");\n        uint256 claimableAmount = getClaimableAmount(_address);\n        \n        require(claimableAmount > 0, \"Token amount must be larger than Zero!\");\n        require(claimableAmount <= balance[_address], \"Invalid claimable amount!\");\n        token.transfer(_address, claimableAmount);\n        balance[_address] = balance[_address] - claimableAmount;\n\n        emit ClaimToken(_address, claimableAmount, block.timestamp);\n        latestClaimTime[_address] = block.timestamp;\n    }\n\n    // Return 25% of total tokens that investor purchased\n    function getClaimableAmount(address _address) public view returns(uint256) {\n        uint256 claimableAmountPerMonth = bought_amount[_address] * 25 / 100;\n        //uint months = _calculateMonths(startDate, endDate);\n        return claimableAmountPerMonth;\n    }\n\n    // Investor can only claim token one per month\n    function isClaimable(address _address) public view returns(bool) {\n        uint256 currentTime = block.timestamp;\n        uint256 latestClaim = latestClaimTime[_address];\n        if(currentTime > latestClaim + 30 days) {\n            return true;\n        }\n        return false;\n    }\n\n    function _caculateTokenAmount(uint256 paid_amount) internal view returns (uint256) {\n        return paid_amount * rate;\n    }\n\n    function _calculateMonths(uint startDate, uint endDate) internal pure returns(uint) {\n        uint diff = endDate - startDate;\n        return diff / (1 days * 30);\n    }\n    \n    function _isOverOneMonth(uint startDate, uint endDate) internal pure returns(bool){\n        uint diff = endDate - startDate;\n        return (diff / (1 days * 30)) >= 1;\n    }\n}",
  "sourcePath": "/Users/huuthang/Desktop/presale/contracts/Presale.sol",
  "compiler": {
    "name": "solc",
    "version": "0.8.10+commit.fc410830.Emscripten.clang"
  },
  "schemaVersion": "3.4.4",
  "updatedAt": "2022-01-04T07:13:29.419Z",
  "networkType": "ethereum",
  "devdoc": {
    "kind": "dev",
    "methods": {},
    "version": 1
  },
  "userdoc": {
    "kind": "user",
    "methods": {},
    "version": 1
  }
}